{
  "_format": "hh-sol-artifact-1",
  "contractName": "Interface",
  "sourceName": "contracts/Interface.sol",
  "abi": [
    {
      "inputs": [],
      "name": "_msg",
      "outputs": [
        {
          "internalType": "address",
          "name": "",
          "type": "address"
        }
      ],
      "stateMutability": "view",
      "type": "function"
    },
    {
      "inputs": [
        {
          "internalType": "address",
          "name": "_token",
          "type": "address"
        },
        {
          "internalType": "address",
          "name": "acc",
          "type": "address"
        }
      ],
      "name": "balance",
      "outputs": [
        {
          "internalType": "uint256",
          "name": "",
          "type": "uint256"
        }
      ],
      "stateMutability": "view",
      "type": "function"
    },
    {
      "inputs": [
        {
          "internalType": "address",
          "name": "_address",
          "type": "address"
        }
      ],
      "name": "balanceMatic",
      "outputs": [
        {
          "internalType": "uint256",
          "name": "",
          "type": "uint256"
        }
      ],
      "stateMutability": "view",
      "type": "function"
    },
    {
      "inputs": [
        {
          "internalType": "uint256",
          "name": "amountIn",
          "type": "uint256"
        },
        {
          "internalType": "address",
          "name": "token0",
          "type": "address"
        },
        {
          "internalType": "address",
          "name": "token1",
          "type": "address"
        },
        {
          "internalType": "address",
          "name": "Router",
          "type": "address"
        }
      ],
      "name": "getAmountsOut",
      "outputs": [
        {
          "internalType": "uint256",
          "name": "",
          "type": "uint256"
        }
      ],
      "stateMutability": "view",
      "type": "function"
    },
    {
      "inputs": [
        {
          "internalType": "address",
          "name": "_token0",
          "type": "address"
        },
        {
          "internalType": "address",
          "name": "_token1",
          "type": "address"
        },
        {
          "internalType": "uint24",
          "name": "_fee",
          "type": "uint24"
        }
      ],
      "name": "poolAdress",
      "outputs": [
        {
          "internalType": "address",
          "name": "poolAddress",
          "type": "address"
        }
      ],
      "stateMutability": "view",
      "type": "function"
    },
    {
      "inputs": [
        {
          "internalType": "address",
          "name": "token",
          "type": "address"
        },
        {
          "internalType": "address",
          "name": "Router",
          "type": "address"
        }
      ],
      "name": "swapExactETHForTokens",
      "outputs": [
        {
          "internalType": "uint256",
          "name": "",
          "type": "uint256"
        }
      ],
      "stateMutability": "payable",
      "type": "function"
    },
    {
      "inputs": [
        {
          "internalType": "address",
          "name": "inToken",
          "type": "address"
        },
        {
          "internalType": "address",
          "name": "outToken",
          "type": "address"
        },
        {
          "internalType": "uint24",
          "name": "poolFee",
          "type": "uint24"
        },
        {
          "internalType": "uint256",
          "name": "amountIn",
          "type": "uint256"
        }
      ],
      "name": "swapExactInputSingle",
      "outputs": [
        {
          "internalType": "uint256",
          "name": "amountOut",
          "type": "uint256"
        }
      ],
      "stateMutability": "nonpayable",
      "type": "function"
    },
    {
      "inputs": [
        {
          "internalType": "uint256",
          "name": "amountIn",
          "type": "uint256"
        },
        {
          "internalType": "address",
          "name": "token0",
          "type": "address"
        },
        {
          "internalType": "address",
          "name": "token1",
          "type": "address"
        },
        {
          "internalType": "address",
          "name": "Router",
          "type": "address"
        }
      ],
      "name": "swapExactTokenForTokens",
      "outputs": [
        {
          "internalType": "uint256",
          "name": "",
          "type": "uint256"
        }
      ],
      "stateMutability": "nonpayable",
      "type": "function"
    },
    {
      "inputs": [
        {
          "internalType": "uint256",
          "name": "amountIn",
          "type": "uint256"
        },
        {
          "internalType": "address",
          "name": "token0",
          "type": "address"
        },
        {
          "internalType": "address",
          "name": "Router",
          "type": "address"
        }
      ],
      "name": "swapExactTokensForETH",
      "outputs": [
        {
          "internalType": "uint256",
          "name": "",
          "type": "uint256"
        }
      ],
      "stateMutability": "nonpayable",
      "type": "function"
    },
    {
      "inputs": [
        {
          "internalType": "address",
          "name": "_token",
          "type": "address"
        },
        {
          "internalType": "uint256",
          "name": "amount",
          "type": "uint256"
        },
        {
          "internalType": "address",
          "name": "recepient",
          "type": "address"
        }
      ],
      "name": "transfer",
      "outputs": [
        {
          "internalType": "bool",
          "name": "",
          "type": "bool"
        }
      ],
      "stateMutability": "nonpayable",
      "type": "function"
    },
    {
      "inputs": [
        {
          "internalType": "address",
          "name": "_token",
          "type": "address"
        },
        {
          "internalType": "address",
          "name": "sender",
          "type": "address"
        },
        {
          "internalType": "address",
          "name": "dst",
          "type": "address"
        },
        {
          "internalType": "uint256",
          "name": "wad",
          "type": "uint256"
        }
      ],
      "name": "transferFrom",
      "outputs": [
        {
          "internalType": "bool",
          "name": "",
          "type": "bool"
        }
      ],
      "stateMutability": "nonpayable",
      "type": "function"
    },
    {
      "inputs": [
        {
          "internalType": "address payable",
          "name": "_address",
          "type": "address"
        }
      ],
      "name": "transferMatic_toContract",
      "outputs": [],
      "stateMutability": "payable",
      "type": "function"
    }
  ],
  "bytecode": "0x608060405234801561001057600080fd5b506122a1806100206000396000f3fe6080604052600436106100a75760003560e01c8063b203bb9911610064578063b203bb99146101fb578063d25942d014610238578063d69ca01414610254578063dbba0f0114610291578063dfd00055146102ce578063f0aa85831461030b576100a7565b806310c8c11d146100ac57806315dacbea146100d757806336c18e19146101145780634e4248f4146101515780635e6e23791461018e578063873650c5146101be575b600080fd5b3480156100b857600080fd5b506100c1610348565b6040516100ce9190611f25565b60405180910390f35b3480156100e357600080fd5b506100fe60048036038101906100f99190611aae565b610394565b60405161010b9190611fa0565b60405180910390f35b34801561012057600080fd5b5061013b60048036038101906101369190611cf4565b61046e565b6040516101489190612023565b60405180910390f35b34801561015d57600080fd5b50610178600480360381019061017391906119f7565b6106ee565b6040516101859190612023565b60405180910390f35b6101a860048036038101906101a39190611a72565b610765565b6040516101b59190612023565b60405180910390f35b3480156101ca57600080fd5b506101e560048036038101906101e09190611ca5565b61097e565b6040516101f29190612023565b60405180910390f35b34801561020757600080fd5b50610222600480360381019061021d9190611a72565b610bbe565b60405161022f9190612023565b60405180910390f35b610252600480360381019061024d9190611a49565b610c96565b005b34801561026057600080fd5b5061027b60048036038101906102769190611b11565b610d09565b6040516102889190611f25565b60405180910390f35b34801561029d57600080fd5b506102b860048036038101906102b39190611bc3565b610dcd565b6040516102c59190611fa0565b60405180910390f35b3480156102da57600080fd5b506102f560048036038101906102f09190611b60565b610e6a565b6040516103029190612023565b60405180910390f35b34801561031757600080fd5b50610332600480360381019061032d9190611cf4565b610fc7565b60405161033f9190612023565b60405180910390f35b60008033905061038d6040518060400160405280600d81526020017f6d73672e73656e64657220257300000000000000000000000000000000000000815250826111ff565b8091505090565b60006103d56040518060400160405280600b81526020017f7472616e736665722025730000000000000000000000000000000000000000008152508361131c565b8473ffffffffffffffffffffffffffffffffffffffff166323b872dd8585856040518463ffffffff1660e01b815260040161041293929190611f40565b602060405180830381600087803b15801561042c57600080fd5b505af1158015610440573d6000803e3d6000fd5b505050506040513d601f19601f820116820180604052508101906104649190611c53565b9050949350505050565b600080600267ffffffffffffffff8111801561048957600080fd5b506040519080825280602002602001820160405280156104b85781602001602082028036833780820191505090505b50905084816000815181106104c957fe5b602002602001019073ffffffffffffffffffffffffffffffffffffffff16908173ffffffffffffffffffffffffffffffffffffffff1681525050838160018151811061051157fe5b602002602001019073ffffffffffffffffffffffffffffffffffffffff16908173ffffffffffffffffffffffffffffffffffffffff16815250508473ffffffffffffffffffffffffffffffffffffffff1663095ea7b384886040518363ffffffff1660e01b8152600401610586929190611f77565b602060405180830381600087803b1580156105a057600080fd5b505af11580156105b4573d6000803e3d6000fd5b505050506040513d601f19601f820116820180604052508101906105d89190611c53565b5060008373ffffffffffffffffffffffffffffffffffffffff166338ed173988600085306103e842016040518663ffffffff1660e01b815260040161062195949392919061206e565b600060405180830381600087803b15801561063b57600080fd5b505af115801561064f573d6000803e3d6000fd5b505050506040513d6000823e3d601f19601f820116820180604052508101906106789190611c12565b90506106cd6040518060400160405280600c81526020017f616d6f756e746f75742025730000000000000000000000000000000000000000815250826001815181106106c057fe5b602002602001015161131c565b806001815181106106da57fe5b602002602001015192505050949350505050565b60006107466040518060400160405280600e81526020017f62616c616e6365206574682025730000000000000000000000000000000000008152508373ffffffffffffffffffffffffffffffffffffffff163161131c565b8173ffffffffffffffffffffffffffffffffffffffff16319050919050565b600080600267ffffffffffffffff8111801561078057600080fd5b506040519080825280602002602001820160405280156107af5781602001602082028036833780820191505090505b5090508273ffffffffffffffffffffffffffffffffffffffff1663ad5c46486040518163ffffffff1660e01b815260040160206040518083038186803b1580156107f857600080fd5b505afa15801561080c573d6000803e3d6000fd5b505050506040513d601f19601f820116820180604052508101906108309190611a20565b8160008151811061083d57fe5b602002602001019073ffffffffffffffffffffffffffffffffffffffff16908173ffffffffffffffffffffffffffffffffffffffff1681525050838160018151811061088557fe5b602002602001019073ffffffffffffffffffffffffffffffffffffffff16908173ffffffffffffffffffffffffffffffffffffffff168152505060008373ffffffffffffffffffffffffffffffffffffffff16637ff36ab534600185306103e842016040518663ffffffff1660e01b81526004016109069493929190611fbb565b6000604051808303818588803b15801561091f57600080fd5b505af1158015610933573d6000803e3d6000fd5b50505050506040513d6000823e3d601f19601f8201168201806040525081019061095d9190611c12565b90508060018151811061096c57fe5b60200260200101519250505092915050565b600080600267ffffffffffffffff8111801561099957600080fd5b506040519080825280602002602001820160405280156109c85781602001602082028036833780820191505090505b50905083816000815181106109d957fe5b602002602001019073ffffffffffffffffffffffffffffffffffffffff16908173ffffffffffffffffffffffffffffffffffffffff1681525050730d500b1d8e8ef31e21c99d1db9a6444d3adf127081600181518110610a3557fe5b602002602001019073ffffffffffffffffffffffffffffffffffffffff16908173ffffffffffffffffffffffffffffffffffffffff16815250508373ffffffffffffffffffffffffffffffffffffffff1663095ea7b384876040518363ffffffff1660e01b8152600401610aaa929190611f77565b602060405180830381600087803b158015610ac457600080fd5b505af1158015610ad8573d6000803e3d6000fd5b505050506040513d601f19601f82011682018060405250810190610afc9190611c53565b5060008373ffffffffffffffffffffffffffffffffffffffff166318cbafe587600085306103e842016040518663ffffffff1660e01b8152600401610b4595949392919061206e565b600060405180830381600087803b158015610b5f57600080fd5b505af1158015610b73573d6000803e3d6000fd5b505050506040513d6000823e3d601f19601f82011682018060405250810190610b9c9190611c12565b905080600181518110610bab57fe5b6020026020010151925050509392505050565b6000808373ffffffffffffffffffffffffffffffffffffffff166370a08231846040518263ffffffff1660e01b8152600401610bfa9190611f25565b60206040518083038186803b158015610c1257600080fd5b505afa158015610c26573d6000803e3d6000fd5b505050506040513d601f19601f82011682018060405250810190610c4a9190611c7c565b9050610c8c6040518060400160405280600d81526020017f62616c616e6365202573202573000000000000000000000000000000000000008152508583611423565b8091505092915050565b6000808273ffffffffffffffffffffffffffffffffffffffff1634604051610cbd90611f10565b60006040518083038185875af1925050503d8060008114610cfa576040519150601f19603f3d011682016040523d82523d6000602084013e610cff565b606091505b5091509150505050565b600080731f98431c8ad98523631ae4a59f267346ea31f9849050600060405180606001604052808773ffffffffffffffffffffffffffffffffffffffff1681526020018673ffffffffffffffffffffffffffffffffffffffff1681526020018562ffffff1681525090506000610d7f8383611549565b9050610dc06040518060400160405280600e81526020017f706f6f6c61646472657373202573000000000000000000000000000000000000815250826111ff565b8093505050509392505050565b6000808490508073ffffffffffffffffffffffffffffffffffffffff1663a9059cbb84866040518363ffffffff1660e01b8152600401610e0e929190611f77565b602060405180830381600087803b158015610e2857600080fd5b505af1158015610e3c573d6000803e3d6000fd5b505050506040513d601f19601f82011682018060405250810190610e609190611c53565b9150509392505050565b60008073e592427a0aece92de3edee1f18e0157c058615649050610e8f8682856116a4565b60006040518061010001604052808873ffffffffffffffffffffffffffffffffffffffff1681526020018773ffffffffffffffffffffffffffffffffffffffff1681526020018662ffffff1681526020013073ffffffffffffffffffffffffffffffffffffffff1681526020016103e84201815260200185815260200160008152602001600073ffffffffffffffffffffffffffffffffffffffff1681525090508173ffffffffffffffffffffffffffffffffffffffff1663414bf389826040518263ffffffff1660e01b8152600401610f699190612007565b602060405180830381600087803b158015610f8357600080fd5b505af1158015610f97573d6000803e3d6000fd5b505050506040513d601f19601f82011682018060405250810190610fbb9190611c7c565b92505050949350505050565b600080600267ffffffffffffffff81118015610fe257600080fd5b506040519080825280602002602001820160405280156110115781602001602082028036833780820191505090505b509050848160008151811061102257fe5b602002602001019073ffffffffffffffffffffffffffffffffffffffff16908173ffffffffffffffffffffffffffffffffffffffff1681525050838160018151811061106a57fe5b602002602001019073ffffffffffffffffffffffffffffffffffffffff16908173ffffffffffffffffffffffffffffffffffffffff168152505060008373ffffffffffffffffffffffffffffffffffffffff1663d06ca61f88846040518363ffffffff1660e01b81526004016110e192919061203e565b60006040518083038186803b1580156110f957600080fd5b505afa15801561110d573d6000803e3d6000fd5b505050506040513d6000823e3d601f19601f820116820180604052508101906111369190611c12565b905061118b6040518060400160405280600a81526020017f616d6f756e7430202573000000000000000000000000000000000000000000008152508260008151811061117e57fe5b602002602001015161131c565b6111de6040518060400160405280600a81526020017f616d6f756e743120257300000000000000000000000000000000000000000000815250826001815181106111d157fe5b602002602001015161131c565b806001815181106111eb57fe5b602002602001015192505050949350505050565b611318828260405160240180806020018373ffffffffffffffffffffffffffffffffffffffff168152602001828103825284818151815260200191508051906020019080838360005b83811015611263578082015181840152602081019050611248565b50505050905090810190601f1680156112905780820380516001836020036101000a031916815260200191505b5093505050506040516020818303038152906040527f319af333000000000000000000000000000000000000000000000000000000007bffffffffffffffffffffffffffffffffffffffffffffffffffffffff19166020820180517bffffffffffffffffffffffffffffffffffffffffffffffffffffffff83818316178352505050506118a5565b5050565b61141f82826040516024018080602001838152602001828103825284818151815260200191508051906020019080838360005b8381101561136a57808201518184015260208101905061134f565b50505050905090810190601f1680156113975780820380516001836020036101000a031916815260200191505b5093505050506040516020818303038152906040527fb60e72cc000000000000000000000000000000000000000000000000000000007bffffffffffffffffffffffffffffffffffffffffffffffffffffffff19166020820180517bffffffffffffffffffffffffffffffffffffffffffffffffffffffff83818316178352505050506118a5565b5050565b61154483838360405160240180806020018473ffffffffffffffffffffffffffffffffffffffff168152602001838152602001828103825285818151815260200191508051906020019080838360005b8381101561148e578082015181840152602081019050611473565b50505050905090810190601f1680156114bb5780820380516001836020036101000a031916815260200191505b509450505050506040516020818303038152906040527f0d26b925000000000000000000000000000000000000000000000000000000007bffffffffffffffffffffffffffffffffffffffffffffffffffffffff19166020820180517bffffffffffffffffffffffffffffffffffffffffffffffffffffffff83818316178352505050506118a5565b505050565b6000816020015173ffffffffffffffffffffffffffffffffffffffff16826000015173ffffffffffffffffffffffffffffffffffffffff161061158b57600080fd5b82826000015183602001518460400151604051602001808473ffffffffffffffffffffffffffffffffffffffff1681526020018373ffffffffffffffffffffffffffffffffffffffff1681526020018262ffffff1681526020019350505050604051602081830303815290604052805190602001207fe34f199b19b2b4f47f68442619d555527d244f78a3297ea89325f843f87b8b5460001b60405160200180807fff000000000000000000000000000000000000000000000000000000000000008152506001018473ffffffffffffffffffffffffffffffffffffffff1660601b815260140183815260200182815260200193505050506040516020818303038152906040528051906020012060001c905092915050565b6000808473ffffffffffffffffffffffffffffffffffffffff1663095ea7b360e01b8585604051602401808373ffffffffffffffffffffffffffffffffffffffff16815260200182815260200192505050604051602081830303815290604052907bffffffffffffffffffffffffffffffffffffffffffffffffffffffff19166020820180517bffffffffffffffffffffffffffffffffffffffffffffffffffffffff83818316178352505050506040518082805190602001908083835b602083106117855780518252602082019150602081019050602083039250611762565b6001836020036101000a0380198251168184511680821785525050505050509050019150506000604051808303816000865af19150503d80600081146117e7576040519150601f19603f3d011682016040523d82523d6000602084013e6117ec565b606091505b509150915081801561182c575060008151148061182b575080806020019051602081101561181957600080fd5b81019080805190602001909291905050505b5b61189e576040517f08c379a00000000000000000000000000000000000000000000000000000000081526004018080602001828103825260028152602001807f534100000000000000000000000000000000000000000000000000000000000081525060200191505060405180910390fd5b5050505050565b60008151905060006a636f6e736f6c652e6c6f679050602083016000808483855afa5050505050565b60006118e16118dc846120f9565b6120c8565b9050808382526020820190508285602086028201111561190057600080fd5b60005b85811015611930578161191688826119e2565b845260208401935060208301925050600181019050611903565b5050509392505050565b600081359050611949816121f8565b92915050565b60008151905061195e816121f8565b92915050565b6000813590506119738161220f565b92915050565b600082601f83011261198a57600080fd5b815161199a8482602086016118ce565b91505092915050565b6000815190506119b281612226565b92915050565b6000813590506119c78161223d565b92915050565b6000813590506119dc81612254565b92915050565b6000815190506119f181612254565b92915050565b600060208284031215611a0957600080fd5b6000611a178482850161193a565b91505092915050565b600060208284031215611a3257600080fd5b6000611a408482850161194f565b91505092915050565b600060208284031215611a5b57600080fd5b6000611a6984828501611964565b91505092915050565b60008060408385031215611a8557600080fd5b6000611a938582860161193a565b9250506020611aa48582860161193a565b9150509250929050565b60008060008060808587031215611ac457600080fd5b6000611ad28782880161193a565b9450506020611ae38782880161193a565b9350506040611af48782880161193a565b9250506060611b05878288016119cd565b91505092959194509250565b600080600060608486031215611b2657600080fd5b6000611b348682870161193a565b9350506020611b458682870161193a565b9250506040611b56868287016119b8565b9150509250925092565b60008060008060808587031215611b7657600080fd5b6000611b848782880161193a565b9450506020611b958782880161193a565b9350506040611ba6878288016119b8565b9250506060611bb7878288016119cd565b91505092959194509250565b600080600060608486031215611bd857600080fd5b6000611be68682870161193a565b9350506020611bf7868287016119cd565b9250506040611c088682870161193a565b9150509250925092565b600060208284031215611c2457600080fd5b600082015167ffffffffffffffff811115611c3e57600080fd5b611c4a84828501611979565b91505092915050565b600060208284031215611c6557600080fd5b6000611c73848285016119a3565b91505092915050565b600060208284031215611c8e57600080fd5b6000611c9c848285016119e2565b91505092915050565b600080600060608486031215611cba57600080fd5b6000611cc8868287016119cd565b9350506020611cd98682870161193a565b9250506040611cea8682870161193a565b9150509250925092565b60008060008060808587031215611d0a57600080fd5b6000611d18878288016119cd565b9450506020611d298782880161193a565b9350506040611d3a8782880161193a565b9250506060611d4b8782880161193a565b91505092959194509250565b6000611d638383611d6f565b60208301905092915050565b611d7881612169565b82525050565b611d8781612169565b82525050565b6000611d9882612135565b611da2818561214d565b9350611dad83612125565b8060005b83811015611dde578151611dc58882611d57565b9750611dd083612140565b925050600181019050611db1565b5085935050505092915050565b611df48161218d565b82525050565b611e03816121d2565b82525050565b611e12816121e4565b82525050565b6000611e2560008361215e565b9150600082019050919050565b61010082016000820151611e496000850182611d6f565b506020820151611e5c6020850182611d6f565b506040820151611e6f6040850182611ee3565b506060820151611e826060850182611d6f565b506080820151611e956080850182611ef2565b5060a0820151611ea860a0850182611ef2565b5060c0820151611ebb60c0850182611ef2565b5060e0820151611ece60e0850182611ed4565b50505050565b611edd81612199565b82525050565b611eec816121b9565b82525050565b611efb816121c8565b82525050565b611f0a816121c8565b82525050565b6000611f1b82611e18565b9150819050919050565b6000602082019050611f3a6000830184611d7e565b92915050565b6000606082019050611f556000830186611d7e565b611f626020830185611d7e565b611f6f6040830184611f01565b949350505050565b6000604082019050611f8c6000830185611d7e565b611f996020830184611f01565b9392505050565b6000602082019050611fb56000830184611deb565b92915050565b6000608082019050611fd06000830187611e09565b8181036020830152611fe28186611d8d565b9050611ff16040830185611d7e565b611ffe6060830184611f01565b95945050505050565b60006101008201905061201d6000830184611e32565b92915050565b60006020820190506120386000830184611f01565b92915050565b60006040820190506120536000830185611f01565b81810360208301526120658184611d8d565b90509392505050565b600060a0820190506120836000830188611f01565b6120906020830187611dfa565b81810360408301526120a28186611d8d565b90506120b16060830185611d7e565b6120be6080830184611f01565b9695505050505050565b6000604051905081810181811067ffffffffffffffff821117156120ef576120ee6121f6565b5b8060405250919050565b600067ffffffffffffffff821115612114576121136121f6565b5b602082029050602081019050919050565b6000819050602082019050919050565b600081519050919050565b6000602082019050919050565b600082825260208201905092915050565b600081905092915050565b600061217482612199565b9050919050565b600061218682612199565b9050919050565b60008115159050919050565b600073ffffffffffffffffffffffffffffffffffffffff82169050919050565b600062ffffff82169050919050565b6000819050919050565b60006121dd826121c8565b9050919050565b60006121ef826121c8565b9050919050565bfe5b61220181612169565b811461220c57600080fd5b50565b6122188161217b565b811461222357600080fd5b50565b61222f8161218d565b811461223a57600080fd5b50565b612246816121b9565b811461225157600080fd5b50565b61225d816121c8565b811461226857600080fd5b5056fea2646970667358221220654783cdd5b2ca9969c89c3200a9c3193c65d0269e7047316fad41da5df573e664736f6c63430007060033",
  "linkReferences": {},
  "deployedLinkReferences": {}
}