{
  "_format": "hh-sol-artifact-1",
  "contractName": "MyContract",
  "sourceName": "contracts/MyContract.sol",
  "abi": [
    {
      "inputs": [
        {
          "internalType": "contract ISwapRouter",
          "name": "_swapRouter",
          "type": "address"
        },
        {
          "internalType": "address",
          "name": "_factory",
          "type": "address"
        },
        {
          "internalType": "address",
          "name": "_WETH9",
          "type": "address"
        }
      ],
      "stateMutability": "nonpayable",
      "type": "constructor"
    },
    {
      "anonymous": false,
      "inputs": [
        {
          "indexed": false,
          "internalType": "uint256",
          "name": "",
          "type": "uint256"
        },
        {
          "indexed": false,
          "internalType": "string",
          "name": "",
          "type": "string"
        }
      ],
      "name": "Bal",
      "type": "event"
    },
    {
      "inputs": [],
      "name": "WETH9",
      "outputs": [
        {
          "internalType": "address",
          "name": "",
          "type": "address"
        }
      ],
      "stateMutability": "view",
      "type": "function"
    },
    {
      "inputs": [],
      "name": "_msg",
      "outputs": [
        {
          "internalType": "address",
          "name": "",
          "type": "address"
        }
      ],
      "stateMutability": "view",
      "type": "function"
    },
    {
      "inputs": [
        {
          "internalType": "address",
          "name": "_token",
          "type": "address"
        },
        {
          "internalType": "address",
          "name": "acc",
          "type": "address"
        }
      ],
      "name": "balance",
      "outputs": [
        {
          "internalType": "uint256",
          "name": "",
          "type": "uint256"
        }
      ],
      "stateMutability": "view",
      "type": "function"
    },
    {
      "inputs": [
        {
          "internalType": "address",
          "name": "_address",
          "type": "address"
        }
      ],
      "name": "balanceMatic",
      "outputs": [
        {
          "internalType": "uint256",
          "name": "",
          "type": "uint256"
        }
      ],
      "stateMutability": "view",
      "type": "function"
    },
    {
      "inputs": [],
      "name": "factory",
      "outputs": [
        {
          "internalType": "address",
          "name": "",
          "type": "address"
        }
      ],
      "stateMutability": "view",
      "type": "function"
    },
    {
      "inputs": [
        {
          "internalType": "uint256",
          "name": "amountIn",
          "type": "uint256"
        },
        {
          "internalType": "address",
          "name": "token0",
          "type": "address"
        },
        {
          "internalType": "address",
          "name": "token1",
          "type": "address"
        },
        {
          "internalType": "address",
          "name": "Router",
          "type": "address"
        }
      ],
      "name": "getAmountsOut",
      "outputs": [
        {
          "internalType": "uint256",
          "name": "",
          "type": "uint256"
        }
      ],
      "stateMutability": "view",
      "type": "function"
    },
    {
      "inputs": [
        {
          "components": [
            {
              "internalType": "address",
              "name": "token0",
              "type": "address"
            },
            {
              "internalType": "address",
              "name": "token1",
              "type": "address"
            },
            {
              "internalType": "uint24",
              "name": "fee1",
              "type": "uint24"
            },
            {
              "internalType": "uint256",
              "name": "amount0",
              "type": "uint256"
            },
            {
              "internalType": "uint256",
              "name": "amount1",
              "type": "uint256"
            },
            {
              "internalType": "uint24",
              "name": "fee2",
              "type": "uint24"
            },
            {
              "internalType": "uint24",
              "name": "fee3",
              "type": "uint24"
            },
            {
              "internalType": "address",
              "name": "token2",
              "type": "address"
            },
            {
              "internalType": "uint24",
              "name": "fee4",
              "type": "uint24"
            },
            {
              "internalType": "enum MyContract.Direction",
              "name": "_direction",
              "type": "uint8"
            }
          ],
          "internalType": "struct MyContract.FlashParams",
          "name": "params",
          "type": "tuple"
        }
      ],
      "name": "initFlash",
      "outputs": [],
      "stateMutability": "nonpayable",
      "type": "function"
    },
    {
      "inputs": [
        {
          "internalType": "address",
          "name": "_token0",
          "type": "address"
        },
        {
          "internalType": "address",
          "name": "_token1",
          "type": "address"
        },
        {
          "internalType": "uint24",
          "name": "_fee",
          "type": "uint24"
        }
      ],
      "name": "poolAdress",
      "outputs": [
        {
          "internalType": "address",
          "name": "poolAddress",
          "type": "address"
        }
      ],
      "stateMutability": "view",
      "type": "function"
    },
    {
      "inputs": [],
      "name": "refundETH",
      "outputs": [],
      "stateMutability": "payable",
      "type": "function"
    },
    {
      "inputs": [
        {
          "internalType": "address",
          "name": "token",
          "type": "address"
        },
        {
          "internalType": "address",
          "name": "Router",
          "type": "address"
        }
      ],
      "name": "swapExactETHForTokens",
      "outputs": [
        {
          "internalType": "uint256",
          "name": "",
          "type": "uint256"
        }
      ],
      "stateMutability": "payable",
      "type": "function"
    },
    {
      "inputs": [
        {
          "internalType": "address",
          "name": "inToken",
          "type": "address"
        },
        {
          "internalType": "address",
          "name": "outToken",
          "type": "address"
        },
        {
          "internalType": "uint24",
          "name": "poolFee",
          "type": "uint24"
        },
        {
          "internalType": "uint256",
          "name": "amountIn",
          "type": "uint256"
        }
      ],
      "name": "swapExactInputSingle",
      "outputs": [
        {
          "internalType": "uint256",
          "name": "amountOut",
          "type": "uint256"
        }
      ],
      "stateMutability": "nonpayable",
      "type": "function"
    },
    {
      "inputs": [
        {
          "internalType": "uint256",
          "name": "amountIn",
          "type": "uint256"
        },
        {
          "internalType": "address",
          "name": "token0",
          "type": "address"
        },
        {
          "internalType": "address",
          "name": "token1",
          "type": "address"
        },
        {
          "internalType": "address",
          "name": "Router",
          "type": "address"
        }
      ],
      "name": "swapExactTokenForTokens",
      "outputs": [
        {
          "internalType": "uint256",
          "name": "",
          "type": "uint256"
        }
      ],
      "stateMutability": "nonpayable",
      "type": "function"
    },
    {
      "inputs": [
        {
          "internalType": "uint256",
          "name": "amountIn",
          "type": "uint256"
        },
        {
          "internalType": "address",
          "name": "token0",
          "type": "address"
        },
        {
          "internalType": "address",
          "name": "Router",
          "type": "address"
        }
      ],
      "name": "swapExactTokensForETH",
      "outputs": [
        {
          "internalType": "uint256",
          "name": "",
          "type": "uint256"
        }
      ],
      "stateMutability": "nonpayable",
      "type": "function"
    },
    {
      "inputs": [],
      "name": "swapRouter",
      "outputs": [
        {
          "internalType": "contract ISwapRouter",
          "name": "",
          "type": "address"
        }
      ],
      "stateMutability": "view",
      "type": "function"
    },
    {
      "inputs": [
        {
          "internalType": "address",
          "name": "token",
          "type": "address"
        },
        {
          "internalType": "uint256",
          "name": "amountMinimum",
          "type": "uint256"
        },
        {
          "internalType": "address",
          "name": "recipient",
          "type": "address"
        }
      ],
      "name": "sweepToken",
      "outputs": [],
      "stateMutability": "payable",
      "type": "function"
    },
    {
      "inputs": [
        {
          "internalType": "address",
          "name": "_token",
          "type": "address"
        },
        {
          "internalType": "uint256",
          "name": "amount",
          "type": "uint256"
        },
        {
          "internalType": "address",
          "name": "recepient",
          "type": "address"
        }
      ],
      "name": "transfer",
      "outputs": [
        {
          "internalType": "bool",
          "name": "",
          "type": "bool"
        }
      ],
      "stateMutability": "nonpayable",
      "type": "function"
    },
    {
      "inputs": [
        {
          "internalType": "address",
          "name": "_token",
          "type": "address"
        },
        {
          "internalType": "address",
          "name": "sender",
          "type": "address"
        },
        {
          "internalType": "address",
          "name": "dst",
          "type": "address"
        },
        {
          "internalType": "uint256",
          "name": "wad",
          "type": "uint256"
        }
      ],
      "name": "transferFrom",
      "outputs": [
        {
          "internalType": "bool",
          "name": "",
          "type": "bool"
        }
      ],
      "stateMutability": "nonpayable",
      "type": "function"
    },
    {
      "inputs": [
        {
          "internalType": "address payable",
          "name": "_address",
          "type": "address"
        }
      ],
      "name": "transferMatic_toContract",
      "outputs": [],
      "stateMutability": "payable",
      "type": "function"
    },
    {
      "inputs": [
        {
          "internalType": "uint256",
          "name": "fee0",
          "type": "uint256"
        },
        {
          "internalType": "uint256",
          "name": "fee1",
          "type": "uint256"
        },
        {
          "internalType": "bytes",
          "name": "data",
          "type": "bytes"
        }
      ],
      "name": "uniswapV3FlashCallback",
      "outputs": [],
      "stateMutability": "nonpayable",
      "type": "function"
    },
    {
      "inputs": [
        {
          "internalType": "uint256",
          "name": "amountMinimum",
          "type": "uint256"
        },
        {
          "internalType": "address",
          "name": "recipient",
          "type": "address"
        }
      ],
      "name": "unwrapWETH9",
      "outputs": [],
      "stateMutability": "payable",
      "type": "function"
    },
    {
      "stateMutability": "payable",
      "type": "receive"
    }
  ],
  "bytecode": "0x60e06040523480156200001157600080fd5b5060405162003fc738038062003fc7833981810160405281019062000037919062000117565b81818173ffffffffffffffffffffffffffffffffffffffff1660808173ffffffffffffffffffffffffffffffffffffffff1660601b815250508073ffffffffffffffffffffffffffffffffffffffff1660a08173ffffffffffffffffffffffffffffffffffffffff1660601b8152505050508273ffffffffffffffffffffffffffffffffffffffff1660c08173ffffffffffffffffffffffffffffffffffffffff1660601b81525050505050620001e9565b600081519050620000fa81620001b5565b92915050565b6000815190506200011181620001cf565b92915050565b6000806000606084860312156200012d57600080fd5b60006200013d8682870162000100565b93505060206200015086828701620000e9565b92505060406200016386828701620000e9565b9150509250925092565b60006200017a8262000195565b9050919050565b60006200018e826200016d565b9050919050565b600073ffffffffffffffffffffffffffffffffffffffff82169050919050565b620001c0816200016d565b8114620001cc57600080fd5b50565b620001da8162000181565b8114620001e657600080fd5b50565b60805160601c60a05160601c60c05160601c613d8062000247600039806112d552508061012a5280610b2b5280610c6e5280610d0952806127205280612780528061280152508061074052806112f9528061179b5250613d806000f3fe6080604052600436106101235760003560e01c8063b203bb99116100a0578063dbba0f0111610064578063dbba0f01146104a5578063df2ab5bb146104e2578063dfd00055146104fe578063e9cbafb01461053b578063f0aa858314610564576101eb565b8063b203bb99146103b9578063c31c9c07146103f6578063c45a015514610421578063d25942d01461044c578063d69ca01414610468576101eb565b806349404b7c116100e757806349404b7c146102c85780634aa4a4fc146102e45780634e4248f41461030f5780635e6e23791461034c578063873650c51461037c576101eb565b806310c8c11d146101f057806312210e8a1461021b57806315dacbea1461022557806323911e351461026257806336c18e191461028b576101eb565b366101eb577f000000000000000000000000000000000000000000000000000000000000000073ffffffffffffffffffffffffffffffffffffffff163373ffffffffffffffffffffffffffffffffffffffff16146101e9576040517f08c379a00000000000000000000000000000000000000000000000000000000081526004018080602001828103825260098152602001807f4e6f74205745544839000000000000000000000000000000000000000000000081525060200191505060405180910390fd5b005b600080fd5b3480156101fc57600080fd5b506102056105a1565b60405161021291906137b5565b60405180910390f35b6102236105ed565b005b34801561023157600080fd5b5061024c60048036038101906102479190612fe1565b610603565b604051610259919061387c565b60405180910390f35b34801561026e57600080fd5b50610289600480360381019061028491906131d9565b6106dd565b005b34801561029757600080fd5b506102b260048036038101906102ad91906132b7565b6108a7565b6040516102bf9190613936565b60405180910390f35b6102e260048036038101906102dd919061322c565b610b27565b005b3480156102f057600080fd5b506102f9610d07565b60405161030691906137b5565b60405180910390f35b34801561031b57600080fd5b5061033660048036038101906103319190612f2a565b610d2b565b6040516103439190613936565b60405180910390f35b61036660048036038101906103619190612fa5565b610da2565b6040516103739190613936565b60405180910390f35b34801561038857600080fd5b506103a3600480360381019061039e9190613268565b610fbb565b6040516103b09190613936565b60405180910390f35b3480156103c557600080fd5b506103e060048036038101906103db9190612fa5565b6111fb565b6040516103ed9190613936565b60405180910390f35b34801561040257600080fd5b5061040b6112d3565b6040516104189190613897565b60405180910390f35b34801561042d57600080fd5b506104366112f7565b60405161044391906137b5565b60405180910390f35b61046660048036038101906104619190612f7c565b61131b565b005b34801561047457600080fd5b5061048f600480360381019061048a9190613044565b61138e565b60405161049c91906137b5565b60405180910390f35b3480156104b157600080fd5b506104cc60048036038101906104c791906130f6565b611452565b6040516104d9919061387c565b60405180910390f35b6104fc60048036038101906104f791906130f6565b6114ef565b005b34801561050a57600080fd5b5061052560048036038101906105209190613093565b611626565b6040516105329190613936565b60405180910390f35b34801561054757600080fd5b50610562600480360381019061055d919061331a565b611783565b005b34801561057057600080fd5b5061058b600480360381019061058691906132b7565b611a5d565b6040516105989190613936565b60405180910390f35b6000803390506105e66040518060400160405280600d81526020017f6d73672e73656e6465722025730000000000000000000000000000000000000081525082611c95565b8091505090565b6000471115610601576106003347611db2565b5b565b60006106446040518060400160405280600b81526020017f7472616e7366657220257300000000000000000000000000000000000000000081525083611f2e565b8473ffffffffffffffffffffffffffffffffffffffff166323b872dd8585856040518463ffffffff1660e01b81526004016106819392919061381c565b602060405180830381600087803b15801561069b57600080fd5b505af11580156106af573d6000803e3d6000fd5b505050506040513d601f19601f820116820180604052508101906106d39190613186565b9050949350505050565b60006040518060600160405280836000015173ffffffffffffffffffffffffffffffffffffffff168152602001836020015173ffffffffffffffffffffffffffffffffffffffff168152602001836040015162ffffff16815250905060006107657f000000000000000000000000000000000000000000000000000000000000000083612035565b90508073ffffffffffffffffffffffffffffffffffffffff1663490e6cbc308560600151866080015160405180610120016040528089606001518152602001896080015181526020013373ffffffffffffffffffffffffffffffffffffffff1681526020018881526020018960a0015162ffffff1681526020018960c0015162ffffff1681526020018960e0015173ffffffffffffffffffffffffffffffffffffffff16815260200189610100015162ffffff168152602001896101200151600181111561082f57fe5b815250604051602001610842919061391a565b6040516020818303038152906040526040518563ffffffff1660e01b815260040161087094939291906137d0565b600060405180830381600087803b15801561088a57600080fd5b505af115801561089e573d6000803e3d6000fd5b50505050505050565b600080600267ffffffffffffffff811180156108c257600080fd5b506040519080825280602002602001820160405280156108f15781602001602082028036833780820191505090505b509050848160008151811061090257fe5b602002602001019073ffffffffffffffffffffffffffffffffffffffff16908173ffffffffffffffffffffffffffffffffffffffff1681525050838160018151811061094a57fe5b602002602001019073ffffffffffffffffffffffffffffffffffffffff16908173ffffffffffffffffffffffffffffffffffffffff16815250508473ffffffffffffffffffffffffffffffffffffffff1663095ea7b384886040518363ffffffff1660e01b81526004016109bf929190613853565b602060405180830381600087803b1580156109d957600080fd5b505af11580156109ed573d6000803e3d6000fd5b505050506040513d601f19601f82011682018060405250810190610a119190613186565b5060008373ffffffffffffffffffffffffffffffffffffffff166338ed173988600085306103e842016040518663ffffffff1660e01b8152600401610a5a959493929190613981565b600060405180830381600087803b158015610a7457600080fd5b505af1158015610a88573d6000803e3d6000fd5b505050506040513d6000823e3d601f19601f82011682018060405250810190610ab19190613145565b9050610b066040518060400160405280600c81526020017f616d6f756e746f7574202573000000000000000000000000000000000000000081525082600181518110610af957fe5b6020026020010151611f2e565b80600181518110610b1357fe5b602002602001015192505050949350505050565b60007f000000000000000000000000000000000000000000000000000000000000000073ffffffffffffffffffffffffffffffffffffffff166370a08231306040518263ffffffff1660e01b8152600401808273ffffffffffffffffffffffffffffffffffffffff16815260200191505060206040518083038186803b158015610bb057600080fd5b505afa158015610bc4573d6000803e3d6000fd5b505050506040513d6020811015610bda57600080fd5b8101908080519060200190929190505050905082811015610c63576040517f08c379a00000000000000000000000000000000000000000000000000000000081526004018080602001828103825260128152602001807f496e73756666696369656e74205745544839000000000000000000000000000081525060200191505060405180910390fd5b6000811115610d02577f000000000000000000000000000000000000000000000000000000000000000073ffffffffffffffffffffffffffffffffffffffff16632e1a7d4d826040518263ffffffff1660e01b815260040180828152602001915050600060405180830381600087803b158015610cdf57600080fd5b505af1158015610cf3573d6000803e3d6000fd5b50505050610d018282611db2565b5b505050565b7f000000000000000000000000000000000000000000000000000000000000000081565b6000610d836040518060400160405280600e81526020017f62616c616e6365206574682025730000000000000000000000000000000000008152508373ffffffffffffffffffffffffffffffffffffffff1631611f2e565b8173ffffffffffffffffffffffffffffffffffffffff16319050919050565b600080600267ffffffffffffffff81118015610dbd57600080fd5b50604051908082528060200260200182016040528015610dec5781602001602082028036833780820191505090505b5090508273ffffffffffffffffffffffffffffffffffffffff1663ad5c46486040518163ffffffff1660e01b815260040160206040518083038186803b158015610e3557600080fd5b505afa158015610e49573d6000803e3d6000fd5b505050506040513d601f19601f82011682018060405250810190610e6d9190612f53565b81600081518110610e7a57fe5b602002602001019073ffffffffffffffffffffffffffffffffffffffff16908173ffffffffffffffffffffffffffffffffffffffff16815250508381600181518110610ec257fe5b602002602001019073ffffffffffffffffffffffffffffffffffffffff16908173ffffffffffffffffffffffffffffffffffffffff168152505060008373ffffffffffffffffffffffffffffffffffffffff16637ff36ab534600185306103e842016040518663ffffffff1660e01b8152600401610f4394939291906138b2565b6000604051808303818588803b158015610f5c57600080fd5b505af1158015610f70573d6000803e3d6000fd5b50505050506040513d6000823e3d601f19601f82011682018060405250810190610f9a9190613145565b905080600181518110610fa957fe5b60200260200101519250505092915050565b600080600267ffffffffffffffff81118015610fd657600080fd5b506040519080825280602002602001820160405280156110055781602001602082028036833780820191505090505b509050838160008151811061101657fe5b602002602001019073ffffffffffffffffffffffffffffffffffffffff16908173ffffffffffffffffffffffffffffffffffffffff1681525050730d500b1d8e8ef31e21c99d1db9a6444d3adf12708160018151811061107257fe5b602002602001019073ffffffffffffffffffffffffffffffffffffffff16908173ffffffffffffffffffffffffffffffffffffffff16815250508373ffffffffffffffffffffffffffffffffffffffff1663095ea7b384876040518363ffffffff1660e01b81526004016110e7929190613853565b602060405180830381600087803b15801561110157600080fd5b505af1158015611115573d6000803e3d6000fd5b505050506040513d601f19601f820116820180604052508101906111399190613186565b5060008373ffffffffffffffffffffffffffffffffffffffff166318cbafe587600085306103e842016040518663ffffffff1660e01b8152600401611182959493929190613981565b600060405180830381600087803b15801561119c57600080fd5b505af11580156111b0573d6000803e3d6000fd5b505050506040513d6000823e3d601f19601f820116820180604052508101906111d99190613145565b9050806001815181106111e857fe5b6020026020010151925050509392505050565b6000808373ffffffffffffffffffffffffffffffffffffffff166370a08231846040518263ffffffff1660e01b815260040161123791906137b5565b60206040518083038186803b15801561124f57600080fd5b505afa158015611263573d6000803e3d6000fd5b505050506040513d601f19601f820116820180604052508101906112879190613203565b90506112c96040518060400160405280600d81526020017f62616c616e6365202573202573000000000000000000000000000000000000008152508583612190565b8091505092915050565b7f000000000000000000000000000000000000000000000000000000000000000081565b7f000000000000000000000000000000000000000000000000000000000000000081565b6000808273ffffffffffffffffffffffffffffffffffffffff1634604051611342906137a0565b60006040518083038185875af1925050503d806000811461137f576040519150601f19603f3d011682016040523d82523d6000602084013e611384565b606091505b5091509150505050565b600080731f98431c8ad98523631ae4a59f267346ea31f9849050600060405180606001604052808773ffffffffffffffffffffffffffffffffffffffff1681526020018673ffffffffffffffffffffffffffffffffffffffff1681526020018562ffffff16815250905060006114048383612035565b90506114456040518060400160405280600e81526020017f706f6f6c6164647265737320257300000000000000000000000000000000000081525082611c95565b8093505050509392505050565b6000808490508073ffffffffffffffffffffffffffffffffffffffff1663a9059cbb84866040518363ffffffff1660e01b8152600401611493929190613853565b602060405180830381600087803b1580156114ad57600080fd5b505af11580156114c1573d6000803e3d6000fd5b505050506040513d601f19601f820116820180604052508101906114e59190613186565b9150509392505050565b60008373ffffffffffffffffffffffffffffffffffffffff166370a08231306040518263ffffffff1660e01b8152600401808273ffffffffffffffffffffffffffffffffffffffff16815260200191505060206040518083038186803b15801561155857600080fd5b505afa15801561156c573d6000803e3d6000fd5b505050506040513d602081101561158257600080fd5b810190808051906020019092919050505090508281101561160b576040517f08c379a00000000000000000000000000000000000000000000000000000000081526004018080602001828103825260128152602001807f496e73756666696369656e7420746f6b656e000000000000000000000000000081525060200191505060405180910390fd5b60008111156116205761161f8483836122b6565b5b50505050565b60008073e592427a0aece92de3edee1f18e0157c05861564905061164b8682856124b7565b60006040518061010001604052808873ffffffffffffffffffffffffffffffffffffffff1681526020018773ffffffffffffffffffffffffffffffffffffffff1681526020018662ffffff1681526020013073ffffffffffffffffffffffffffffffffffffffff1681526020016103e84201815260200185815260200160008152602001600073ffffffffffffffffffffffffffffffffffffffff1681525090508173ffffffffffffffffffffffffffffffffffffffff1663414bf389826040518263ffffffff1660e01b815260040161172591906138fe565b602060405180830381600087803b15801561173f57600080fd5b505af1158015611753573d6000803e3d6000fd5b505050506040513d601f19601f820116820180604052508101906117779190613203565b92505050949350505050565b6000828281019061179491906131af565b90506117c47f000000000000000000000000000000000000000000000000000000000000000082606001516126b8565b506117d7816060015160000151306111fb565b506117e68160c00151306111fb565b5060006118098260600151600001518360c001518460e001518560000151611626565b905061181d826060015160000151306111fb565b6000819055506118318260c00151306111fb565b6001819055507fc1d1c4d82d5ceec8dac84edc74d0eac14c374e28afb2cdc101472a4cb21026006000546040516118689190613a09565b60405180910390a17fc1d1c4d82d5ceec8dac84edc74d0eac14c374e28afb2cdc101472a4cb21026006001546040516118a19190613a37565b60405180910390a1600060018111156118b657fe5b82610100015160018111156118c757fe5b14156118ff576118f9818360c0015184606001516000015173a5e0829caced8ffdd4de3c43696c57f7d7a678ff6108a7565b50611951565b60018081111561190b57fe5b826101000151600181111561191c57fe5b14156119505761194e818360c00151846060015160000151731b02da8cb0d097eb8d57a175b88c7d8b479975066108a7565b505b5b6000611961836000015188612704565b9050611975836060015160000151306111fb565b506119848360c00151306111fb565b5061199883606001516000015130836124b7565b60008111156119b6576119b583606001516000015130338461271e565b5b6119c8836060015160000151306111fb565b6000819055506119dc8360c00151306111fb565b6001819055507fc1d1c4d82d5ceec8dac84edc74d0eac14c374e28afb2cdc101472a4cb2102600600054604051611a1391906139db565b60405180910390a17fc1d1c4d82d5ceec8dac84edc74d0eac14c374e28afb2cdc101472a4cb2102600600154604051611a4c9190613a65565b60405180910390a150505050505050565b600080600267ffffffffffffffff81118015611a7857600080fd5b50604051908082528060200260200182016040528015611aa75781602001602082028036833780820191505090505b5090508481600081518110611ab857fe5b602002602001019073ffffffffffffffffffffffffffffffffffffffff16908173ffffffffffffffffffffffffffffffffffffffff16815250508381600181518110611b0057fe5b602002602001019073ffffffffffffffffffffffffffffffffffffffff16908173ffffffffffffffffffffffffffffffffffffffff168152505060008373ffffffffffffffffffffffffffffffffffffffff1663d06ca61f88846040518363ffffffff1660e01b8152600401611b77929190613951565b60006040518083038186803b158015611b8f57600080fd5b505afa158015611ba3573d6000803e3d6000fd5b505050506040513d6000823e3d601f19601f82011682018060405250810190611bcc9190613145565b9050611c216040518060400160405280600a81526020017f616d6f756e74302025730000000000000000000000000000000000000000000081525082600081518110611c1457fe5b6020026020010151611f2e565b611c746040518060400160405280600a81526020017f616d6f756e74312025730000000000000000000000000000000000000000000081525082600181518110611c6757fe5b6020026020010151611f2e565b80600181518110611c8157fe5b602002602001015192505050949350505050565b611dae828260405160240180806020018373ffffffffffffffffffffffffffffffffffffffff168152602001828103825284818151815260200191508051906020019080838360005b83811015611cf9578082015181840152602081019050611cde565b50505050905090810190601f168015611d265780820380516001836020036101000a031916815260200191505b5093505050506040516020818303038152906040527f319af333000000000000000000000000000000000000000000000000000000007bffffffffffffffffffffffffffffffffffffffffffffffffffffffff19166020820180517bffffffffffffffffffffffffffffffffffffffffffffffffffffffff8381831617835250505050612929565b5050565b60008273ffffffffffffffffffffffffffffffffffffffff1682600067ffffffffffffffff81118015611de457600080fd5b506040519080825280601f01601f191660200182016040528015611e175781602001600182028036833780820191505090505b506040518082805190602001908083835b60208310611e4b5780518252602082019150602081019050602083039250611e28565b6001836020036101000a03801982511681845116808217855250505050505090500191505060006040518083038185875af1925050503d8060008114611ead576040519150601f19603f3d011682016040523d82523d6000602084013e611eb2565b606091505b5050905080611f29576040517f08c379a00000000000000000000000000000000000000000000000000000000081526004018080602001828103825260038152602001807f535445000000000000000000000000000000000000000000000000000000000081525060200191505060405180910390fd5b505050565b61203182826040516024018080602001838152602001828103825284818151815260200191508051906020019080838360005b83811015611f7c578082015181840152602081019050611f61565b50505050905090810190601f168015611fa95780820380516001836020036101000a031916815260200191505b5093505050506040516020818303038152906040527fb60e72cc000000000000000000000000000000000000000000000000000000007bffffffffffffffffffffffffffffffffffffffffffffffffffffffff19166020820180517bffffffffffffffffffffffffffffffffffffffffffffffffffffffff8381831617835250505050612929565b5050565b6000816020015173ffffffffffffffffffffffffffffffffffffffff16826000015173ffffffffffffffffffffffffffffffffffffffff161061207757600080fd5b82826000015183602001518460400151604051602001808473ffffffffffffffffffffffffffffffffffffffff1681526020018373ffffffffffffffffffffffffffffffffffffffff1681526020018262ffffff1681526020019350505050604051602081830303815290604052805190602001207fe34f199b19b2b4f47f68442619d555527d244f78a3297ea89325f843f87b8b5460001b60405160200180807fff000000000000000000000000000000000000000000000000000000000000008152506001018473ffffffffffffffffffffffffffffffffffffffff1660601b815260140183815260200182815260200193505050506040516020818303038152906040528051906020012060001c905092915050565b6122b183838360405160240180806020018473ffffffffffffffffffffffffffffffffffffffff168152602001838152602001828103825285818151815260200191508051906020019080838360005b838110156121fb5780820151818401526020810190506121e0565b50505050905090810190601f1680156122285780820380516001836020036101000a031916815260200191505b509450505050506040516020818303038152906040527f0d26b925000000000000000000000000000000000000000000000000000000007bffffffffffffffffffffffffffffffffffffffffffffffffffffffff19166020820180517bffffffffffffffffffffffffffffffffffffffffffffffffffffffff8381831617835250505050612929565b505050565b6000808473ffffffffffffffffffffffffffffffffffffffff1663a9059cbb60e01b8585604051602401808373ffffffffffffffffffffffffffffffffffffffff16815260200182815260200192505050604051602081830303815290604052907bffffffffffffffffffffffffffffffffffffffffffffffffffffffff19166020820180517bffffffffffffffffffffffffffffffffffffffffffffffffffffffff83818316178352505050506040518082805190602001908083835b602083106123975780518252602082019150602081019050602083039250612374565b6001836020036101000a0380198251168184511680821785525050505050509050019150506000604051808303816000865af19150503d80600081146123f9576040519150601f19603f3d011682016040523d82523d6000602084013e6123fe565b606091505b509150915081801561243e575060008151148061243d575080806020019051602081101561242b57600080fd5b81019080805190602001909291905050505b5b6124b0576040517f08c379a00000000000000000000000000000000000000000000000000000000081526004018080602001828103825260028152602001807f535400000000000000000000000000000000000000000000000000000000000081525060200191505060405180910390fd5b5050505050565b6000808473ffffffffffffffffffffffffffffffffffffffff1663095ea7b360e01b8585604051602401808373ffffffffffffffffffffffffffffffffffffffff16815260200182815260200192505050604051602081830303815290604052907bffffffffffffffffffffffffffffffffffffffffffffffffffffffff19166020820180517bffffffffffffffffffffffffffffffffffffffffffffffffffffffff83818316178352505050506040518082805190602001908083835b602083106125985780518252602082019150602081019050602083039250612575565b6001836020036101000a0380198251168184511680821785525050505050509050019150506000604051808303816000865af19150503d80600081146125fa576040519150601f19603f3d011682016040523d82523d6000602084013e6125ff565b606091505b509150915081801561263f575060008151148061263e575080806020019051602081101561262c57600080fd5b81019080805190602001909291905050505b5b6126b1576040517f08c379a00000000000000000000000000000000000000000000000000000000081526004018080602001828103825260028152602001807f534100000000000000000000000000000000000000000000000000000000000081525060200191505060405180910390fd5b5050505050565b60006126c48383612035565b90508073ffffffffffffffffffffffffffffffffffffffff163373ffffffffffffffffffffffffffffffffffffffff16146126fe57600080fd5b92915050565b600082828401915081101561271857600080fd5b92915050565b7f000000000000000000000000000000000000000000000000000000000000000073ffffffffffffffffffffffffffffffffffffffff168473ffffffffffffffffffffffffffffffffffffffff161480156127795750804710155b156128d1577f000000000000000000000000000000000000000000000000000000000000000073ffffffffffffffffffffffffffffffffffffffff1663d0e30db0826040518263ffffffff1660e01b81526004016000604051808303818588803b1580156127e657600080fd5b505af11580156127fa573d6000803e3d6000fd5b50505050507f000000000000000000000000000000000000000000000000000000000000000073ffffffffffffffffffffffffffffffffffffffff1663a9059cbb83836040518363ffffffff1660e01b8152600401808373ffffffffffffffffffffffffffffffffffffffff16815260200182815260200192505050602060405180830381600087803b15801561289057600080fd5b505af11580156128a4573d6000803e3d6000fd5b505050506040513d60208110156128ba57600080fd5b810190808051906020019092919050505050612923565b3073ffffffffffffffffffffffffffffffffffffffff168373ffffffffffffffffffffffffffffffffffffffff161415612915576129108483836122b6565b612922565b61292184848484612952565b5b5b50505050565b60008151905060006a636f6e736f6c652e6c6f679050602083016000808483855afa5050505050565b6000808573ffffffffffffffffffffffffffffffffffffffff166323b872dd60e01b868686604051602401808473ffffffffffffffffffffffffffffffffffffffff1681526020018373ffffffffffffffffffffffffffffffffffffffff1681526020018281526020019350505050604051602081830303815290604052907bffffffffffffffffffffffffffffffffffffffffffffffffffffffff19166020820180517bffffffffffffffffffffffffffffffffffffffffffffffffffffffff83818316178352505050506040518082805190602001908083835b60208310612a515780518252602082019150602081019050602083039250612a2e565b6001836020036101000a0380198251168184511680821785525050505050509050019150506000604051808303816000865af19150503d8060008114612ab3576040519150601f19603f3d011682016040523d82523d6000602084013e612ab8565b606091505b5091509150818015612af85750600081511480612af75750808060200190516020811015612ae557600080fd5b81019080805190602001909291905050505b5b612b6a576040517f08c379a00000000000000000000000000000000000000000000000000000000081526004018080602001828103825260038152602001807f535446000000000000000000000000000000000000000000000000000000000081525060200191505060405180910390fd5b505050505050565b6000612b85612b8084613ac4565b613a93565b90508083825260208201905082856020860282011115612ba457600080fd5b60005b85811015612bd45781612bba8882612f15565b845260208401935060208301925050600181019050612ba7565b5050509392505050565b600081359050612bed81613cc7565b92915050565b600081519050612c0281613cc7565b92915050565b600081359050612c1781613cde565b92915050565b600082601f830112612c2e57600080fd5b8151612c3e848260208601612b72565b91505092915050565b600081519050612c5681613cf5565b92915050565b60008083601f840112612c6e57600080fd5b8235905067ffffffffffffffff811115612c8757600080fd5b602083019150836001820283011115612c9f57600080fd5b9250929050565b600081359050612cb581613d0c565b92915050565b60006101608284031215612cce57600080fd5b612cd9610120613a93565b90506000612ce984828501612f00565b6000830152506020612cfd84828501612f00565b6020830152506040612d1184828501612bde565b6040830152506060612d2584828501612e8b565b60608301525060c0612d3984828501612eeb565b60808301525060e0612d4d84828501612eeb565b60a083015250610100612d6284828501612bde565b60c083015250610120612d7784828501612eeb565b60e083015250610140612d8c84828501612ca6565b6101008301525092915050565b60006101408284031215612dac57600080fd5b612db7610140613a93565b90506000612dc784828501612bde565b6000830152506020612ddb84828501612bde565b6020830152506040612def84828501612eeb565b6040830152506060612e0384828501612f00565b6060830152506080612e1784828501612f00565b60808301525060a0612e2b84828501612eeb565b60a08301525060c0612e3f84828501612eeb565b60c08301525060e0612e5384828501612bde565b60e083015250610100612e6884828501612eeb565b61010083015250610120612e7e84828501612ca6565b6101208301525092915050565b600060608284031215612e9d57600080fd5b612ea76060613a93565b90506000612eb784828501612bde565b6000830152506020612ecb84828501612bde565b6020830152506040612edf84828501612eeb565b60408301525092915050565b600081359050612efa81613d1c565b92915050565b600081359050612f0f81613d33565b92915050565b600081519050612f2481613d33565b92915050565b600060208284031215612f3c57600080fd5b6000612f4a84828501612bde565b91505092915050565b600060208284031215612f6557600080fd5b6000612f7384828501612bf3565b91505092915050565b600060208284031215612f8e57600080fd5b6000612f9c84828501612c08565b91505092915050565b60008060408385031215612fb857600080fd5b6000612fc685828601612bde565b9250506020612fd785828601612bde565b9150509250929050565b60008060008060808587031215612ff757600080fd5b600061300587828801612bde565b945050602061301687828801612bde565b935050604061302787828801612bde565b925050606061303887828801612f00565b91505092959194509250565b60008060006060848603121561305957600080fd5b600061306786828701612bde565b935050602061307886828701612bde565b925050604061308986828701612eeb565b9150509250925092565b600080600080608085870312156130a957600080fd5b60006130b787828801612bde565b94505060206130c887828801612bde565b93505060406130d987828801612eeb565b92505060606130ea87828801612f00565b91505092959194509250565b60008060006060848603121561310b57600080fd5b600061311986828701612bde565b935050602061312a86828701612f00565b925050604061313b86828701612bde565b9150509250925092565b60006020828403121561315757600080fd5b600082015167ffffffffffffffff81111561317157600080fd5b61317d84828501612c1d565b91505092915050565b60006020828403121561319857600080fd5b60006131a684828501612c47565b91505092915050565b600061016082840312156131c257600080fd5b60006131d084828501612cbb565b91505092915050565b600061014082840312156131ec57600080fd5b60006131fa84828501612d99565b91505092915050565b60006020828403121561321557600080fd5b600061322384828501612f15565b91505092915050565b6000806040838503121561323f57600080fd5b600061324d85828601612f00565b925050602061325e85828601612bde565b9150509250929050565b60008060006060848603121561327d57600080fd5b600061328b86828701612f00565b935050602061329c86828701612bde565b92505060406132ad86828701612bde565b9150509250925092565b600080600080608085870312156132cd57600080fd5b60006132db87828801612f00565b94505060206132ec87828801612bde565b93505060406132fd87828801612bde565b925050606061330e87828801612bde565b91505092959194509250565b6000806000806060858703121561333057600080fd5b600061333e87828801612f00565b945050602061334f87828801612f00565b935050604085013567ffffffffffffffff81111561336c57600080fd5b61337887828801612c5c565b925092505092959194509250565b600061339283836133ad565b60208301905092915050565b6133a781613bdd565b82525050565b6133b681613b61565b82525050565b6133c581613b61565b82525050565b60006133d682613b00565b6133e08185613b23565b93506133eb83613af0565b8060005b8381101561341c5781516134038882613386565b975061340e83613b16565b9250506001810190506133ef565b5085935050505092915050565b61343281613b85565b82525050565b600061344382613b0b565b61344d8185613b34565b935061345d818560208601613c6d565b61346681613ca2565b840191505092915050565b61347a81613bef565b82525050565b61348981613c13565b82525050565b61349881613c25565b82525050565b6134a781613c37565b82525050565b60006134ba600f83613b50565b91507f55534443206166746572207377617000000000000000000000000000000000006000830152602082019050919050565b60006134fa601083613b50565b91507f55534443206265666f72652073776170000000000000000000000000000000006000830152602082019050919050565b600061353a600083613b45565b9150600082019050919050565b6000613554601283613b50565b91507f574d41544943206265666f7265207377617000000000000000000000000000006000830152602082019050919050565b6000613594601183613b50565b91507f574d4154494320616674657220737761700000000000000000000000000000006000830152602082019050919050565b610100820160008201516135de60008501826133ad565b5060208201516135f160208501826133ad565b5060408201516136046040850182613773565b50606082015161361760608501826133ad565b50608082015161362a6080850182613782565b5060a082015161363d60a0850182613782565b5060c082015161365060c0850182613782565b5060e082015161366360e0850182613764565b50505050565b610160820160008201516136806000850182613782565b5060208201516136936020850182613782565b5060408201516136a660408501826133ad565b5060608201516136b96060850182613722565b5060808201516136cc60c0850182613773565b5060a08201516136df60e0850182613773565b5060c08201516136f36101008501826133ad565b5060e0820151613707610120850182613773565b5061010082015161371c610140850182613480565b50505050565b60608201600082015161373860008501826133ad565b50602082015161374b60208501826133ad565b50604082015161375e6040850182613773565b50505050565b61376d81613ba4565b82525050565b61377c81613bc4565b82525050565b61378b81613bd3565b82525050565b61379a81613bd3565b82525050565b60006137ab8261352d565b9150819050919050565b60006020820190506137ca60008301846133bc565b92915050565b60006080820190506137e5600083018761339e565b6137f26020830186613791565b6137ff6040830185613791565b81810360608301526138118184613438565b905095945050505050565b600060608201905061383160008301866133bc565b61383e60208301856133bc565b61384b6040830184613791565b949350505050565b600060408201905061386860008301856133bc565b6138756020830184613791565b9392505050565b60006020820190506138916000830184613429565b92915050565b60006020820190506138ac6000830184613471565b92915050565b60006080820190506138c7600083018761349e565b81810360208301526138d981866133cb565b90506138e860408301856133bc565b6138f56060830184613791565b95945050505050565b60006101008201905061391460008301846135c7565b92915050565b6000610160820190506139306000830184613669565b92915050565b600060208201905061394b6000830184613791565b92915050565b60006040820190506139666000830185613791565b818103602083015261397881846133cb565b90509392505050565b600060a0820190506139966000830188613791565b6139a3602083018761348f565b81810360408301526139b581866133cb565b90506139c460608301856133bc565b6139d16080830184613791565b9695505050505050565b60006040820190506139f06000830184613791565b8181036020830152613a01816134ad565b905092915050565b6000604082019050613a1e6000830184613791565b8181036020830152613a2f816134ed565b905092915050565b6000604082019050613a4c6000830184613791565b8181036020830152613a5d81613547565b905092915050565b6000604082019050613a7a6000830184613791565b8181036020830152613a8b81613587565b905092915050565b6000604051905081810181811067ffffffffffffffff82111715613aba57613ab9613ca0565b5b8060405250919050565b600067ffffffffffffffff821115613adf57613ade613ca0565b5b602082029050602081019050919050565b6000819050602082019050919050565b600081519050919050565b600081519050919050565b6000602082019050919050565b600082825260208201905092915050565b600082825260208201905092915050565b600081905092915050565b600082825260208201905092915050565b6000613b6c82613ba4565b9050919050565b6000613b7e82613ba4565b9050919050565b60008115159050919050565b6000819050613b9f82613cb3565b919050565b600073ffffffffffffffffffffffffffffffffffffffff82169050919050565b600062ffffff82169050919050565b6000819050919050565b6000613be882613c49565b9050919050565b6000613bfa82613c01565b9050919050565b6000613c0c82613ba4565b9050919050565b6000613c1e82613b91565b9050919050565b6000613c3082613bd3565b9050919050565b6000613c4282613bd3565b9050919050565b6000613c5482613c5b565b9050919050565b6000613c6682613ba4565b9050919050565b60005b83811015613c8b578082015181840152602081019050613c70565b83811115613c9a576000848401525b50505050565bfe5b6000601f19601f8301169050919050565b60028110613cc457613cc3613ca0565b5b50565b613cd081613b61565b8114613cdb57600080fd5b50565b613ce781613b73565b8114613cf257600080fd5b50565b613cfe81613b85565b8114613d0957600080fd5b50565b60028110613d1957600080fd5b50565b613d2581613bc4565b8114613d3057600080fd5b50565b613d3c81613bd3565b8114613d4757600080fd5b5056fea2646970667358221220c73434b426ff6766c6300a99b9f690740eb88b8b1429d47d9c9dc72a30593aea64736f6c63430007060033",
  "linkReferences": {},
  "deployedLinkReferences": {}
}